:020000040800F2
:1000000000500020E1680008756700087967000863
:100010007D67000881670008856700080000000010
:10002000000000000000000000000000315E000839
:100030008967000800000000C15E0008055F000835
:100040002969000829690008296900082969000848
:100050002969000829690008296900082969000838
:100060002969000829690008296900082969000828
:100070008D67000899670008A5670008B167000848
:100080002969000829690008296900082969000808
:1000900029690008296900082969000829690008F8
:1000A00029690008BD670008296900082969000856
:1000B00029690008296900082969000829690008D8
:1000C00029690008296900082969000829690008C8
:1000D00029690008C967000829690008D567000870
:1000E0002969000829690008296900080000000042
:1000F0000000000000000000000000000000000000
:0C01000000000000000000005FF808F1A3
:1001100010B5054C237833B9044B13B10448AFF341
:1001200000800123237010BD7C000020000000002F
:100130000886000808B5034B1BB103490348AFF319
:10014000008008BD00000000800000200886000834
:1001500003685A004CBF43F0004323F000431844A7
:10016000704700BF61B32DE9F84F01F1FF3A9046A7
:100170000646D146002707EB090404EBD47464104B
:10018000E50071190846FFF7E3FFA245834605F134
:100190000800304409D0FFF7DBFFC34500F1FF3012
:1001A00005D8404509D2671CE5E7C34505D9A742F4
:1001B00002D004F1FF39DEE700210846BDE8F88FE0
:1001C00008467047012807D0022807D0044B0028B2
:1001D0000CBF18460020704702487047024870471D
:1001E000C1080008C5080008C908000830B5264B3A
:1001F00083B004468D1E4BB301A92846AFF300809F
:10020000F0B101992A46FFF7ADFF0146C0B1FFF7F3
:100210009FFF4B68A064012B2FD0002B01F104003D
:1002200027DBFFF795FF0023C4E913030368002BC6
:1002300013DBFFF78DFF00232061184603B030BDAC
:10024000092300221846226103B030BD0F4B10492C
:100250001846C91AC9100191D4E7C3F30360FFF728
:10026000B1FF002814BF002309232061184603B002
:1002700030BD0123C4E91303D8E705230022184643
:10028000226103B030BD00BF00000000548F0008A1
:10029000F4900008036810B5DA07044606D49B07FB
:1002A00000F1480009D500F067FC2368590709D51B
:1002B0001A070ED5DB0613D510BD00F055FC2368D8
:1002C0005907F5D404F1D00000F05EFC23681A074A
:1002D000F0D404F5A87000F05FFC2368DB06EBD4D3
:1002E00004F5E870BDE8104000F09ABC036803B163
:1002F00003441846704700BF09207047704700BF8D
:1003000070B504460D4608E02A6C236962612146F7
:100310002A4601209847082808D1296C2046FFF773
:1003200065FF06460028EFD007F02EF80728FBD11E
:100330003046296CFFF7E2FF281D00F009FC00BFE2
:100340002DE9F04705464FF0000CADF5727D03AC8A
:100350000E1D17460FCE0FC40FCE0FC40FCE0FC405
:1003600096E80F00D5F80C80D5F8189084E80F00B7
:1003700002ACC4F800C021E0236C4FF4F0726B6152
:1003800021467AA807F042F82B697AAA2946304616
:100390009847889BCDE900498246636431462B46E5
:1003A0002A460120C0470746F8B94FF4F0727AA9EF
:1003B000204607F02BF8BAF1080F1CD1216C284613
:1003C000FFF714FF002F08BF0926074618BF0A26AB
:1003D0000028D1D0A36B46F01001CDE900492A4690
:1003E000636401202B46C04700B1092738460DF54C
:1003F000727DBDE8F087BAF1070FF6D13846216C5F
:10040000FFF77CFF03A800F0A3FB00BF406C704720
:100410004FF0FF3CF0B5CB6BF9B00B640D1D01AC98
:100420000F4606460FCD0FC40FCD0FC40FCD0FC41E
:1004300095E80F0084E80F00CDF800C006E03369AE
:100440006A46314698470828044608D11099304634
:10045000FFF7CCFE0028F2D0092079B0F0BD684645
:10046000FFF718FF062CF7D139463046FFF748FF53
:1004700030B4DD6BC160826119461D64002230BC5E
:100480005EE700BF70B54369C6680B64BEB9036917
:100490000A4604460D46014602209847072807D021
:1004A000082803D129462046FFF72AFF06F06CFFF3
:1004B0003046296CFFF722FF281D00F049FB01227E
:1004C000FFF73EFF06F060FFC2682AB110B4CC6BA4
:1004D00000220C6410BC33E79AE700BF704700BFEE
:1004E000836813B10146012018477047042907D8D3
:1004F000DFE801F00308060808000BB90F2A03D94A
:10050000022070470120704700EB820042681846C5
:10051000009B1A60704700BF002310B584B003AC85
:100520000A4600941946FFF7E1FF039804B010BD96
:10053000042907D8DFE801F00308060808000BB912
:100540000F2A03D90220704701207047009900EB61
:100550008202096818465160704700BF002310B539
:1005600084B004AC44F8042D00940A461946FFF701
:10057000DFFF04B010BD00BF4FF0FF3CF0B5D36B00
:10058000ADF50F7D1364151D17AC07460E460FCD54
:100590000FC40FCD0FC40FCD0FC495E80F0084E832
:1005A0000F00CDF858C012E00C2116A86A46FFF7DC
:1005B000D5FF314616A8B84778B9049B16AA6946F4
:1005C000082098470528044608D0092805D0269910
:1005D0006846FFF70BFE0028E6D0092416A8FFF7AF
:1005E00059FE20460DF50F7DF0BD00BF2DE9F04FFF
:1005F0000D46C96C89B00C1D164600F0030B0A6845
:100600001F460694002B68D00221130C8DF81D3074
:100610001204DBB204EB830405928DF81C102B6DE1
:10062000BBF1020F08BFAC6B13F0010346D101937D
:1006300000F008030093D4F80090B9F1000F00F027
:10064000F380022F45D0B4F80090B4F8028004344F
:10065000AB6C28F0010A0F2130469A44FFF75CFF8B
:10066000824534D829F001035344834294BF0020CB
:1006700001204FEA480808F0020809F0010948EA99
:100680000908B8F1010F3AD031D3B8F1020F1AD1ED
:10069000236823F0004ABBF1000F66D130B1009A05
:1006A000002A6CD0BAF1000F00F09080002B00DA25
:1006B00004340AF1010304EB8304BCE7304605A9C6
:1006C00000F048FB78B1092009B0BDE8F08F0020A8
:1006D000CFE7D4F804800834BAE703231202059266
:1006E000ADF81C309BE7082009B0BDE8F08FBBF1E6
:1006F000000F02D0002840F0B48004349BE7BBF127
:10070000000F18D1A8B1D4E90023991C4FEAD27286
:10071000D9D005F158010133049100F0B580201DB6
:10072000FFF7E4FD04AB0146284606F087FC0028ED
:1007300067D108347FE70D213046D5F82080FFF7D8
:10074000EBFE8045F5D1AB6A9C42F2D12046FFF723
:10075000FFFC0F2102463046FFF700FF30462A46D5
:100760000021FFF7FBFE0720AEE70D213046D5F84C
:100770002080FFF7D1FE804532D0236896E7BAF19A
:10078000000F23D005F1580304F10408CDF808B098
:10079000DDF80090A34603971C4602E05745B94692
:1007A00040D040460494FFF7A1FD04AB014600226F
:1007B000284606F043FC09F1010708F10408002867
:1007C000ECD0D1455C46DDE902B7D6D130460D21EB
:1007D000FFF7A2FE049B2862C5E90934062073E7EF
:1007E000AB6A9C42C9D104224FF00008A318C5E9A6
:1007F0000AA8C5E90C23236843454DDB0123019377
:1008000057E780460D213046FFF786FEB8F1020F0C
:1008100028623ED12B46049A43F82C2F6B62AC62BF
:10082000062051E75C46D1E705A9304600F092FA70
:1008300000287FF448AF019B002B3FF454AF0F21F9
:100840003046FFF769FE0E2102463046FFF786FE6E
:1008500030461A4A0F21FFF781FE072009B0BDE894
:10086000F08F2046FFF774FC04340746AC6328463B
:1008700006F042FC00283FF426AF30463A460F21EE
:10088000FFF76CFE07201FE730460D21FFF744FEFF
:100890002862049B6B62C2E70AF1010004EB80004E
:1008A000FFF756FC0F2102463046FFF757FE304651
:1008B0002A464146FFF752FE072005E7DD6E000895
:1008C000002393E6012391E602238FE62DE9F04110
:1008D0000546C4B0042906D8DFE801F04D2B050316
:1008E0000900032B5FD0022044B0BDE8F081002B4B
:1008F000F9D1102AF7D82B68DC0600F1F68022AC7B
:1009000020460192012600F095F90023A86B019A78
:1009100006FA03F1114203D00168043044F82310B1
:100920000133042BF4D1A863204600F079F90020AC
:10093000DAE7012B4FEA124697B254D0052BD2D1F9
:1009400006EB0708B8F1200FCDD80F2E40F29B80A0
:10095000B846002F40F0DD80AA6B0F2EAA6340F24C
:10096000C080B8F1000F02D002A800F00DF90020FD
:1009700044B0BDE8F081002BB5D10127AC6B96B235
:10098000281D07FA03F1314203F1010302D0216867
:1009900004340160102B00F10400F2D112F4005075
:1009A000E5D1AC63A0E7160C97B2F319102B9AD8D7
:1009B0002B681A075FD422AC204600F00FF904EB35
:1009C000C601A86B4FB1034600EBC7001A68043399
:1009D000834241F8042BF9D11846A863204600F061
:1009E000DBF8002080E7F219102A3FF67CAF0F2ECB
:1009F0003FF679AF2A68D10708D5284622F00302CE
:100A000040F8482B019300F0B3F8019B22AC20463C
:100A1000019300F0ADF8A96B019B002F00F09580C9
:100A20004FF000087A0004EBC604043C01EB82029C
:100A300051F8040B914244F8040FF9D1B8F1000FBA
:100A40000FD002AC102E314638BF102104EBC1018B
:100A5000843902EBC80452F8040B944241F8040FA5
:100A6000F9D1012B7FF479AF22AC0432AA6320467E
:100A700000F07AF87BE723F008032B6005F5A870F7
:100A800000F0ACF897E7B8F1100F2A6843D9D00707
:100A9000A8F110080BD5284622F0010242F002020C
:100AA00040F8482B019300F06BF82A68019B51072E
:100AB00025D40F2E04D822A8019300F061F8019BE1
:100AC00002AC2046019300F063F8C6F11000002844
:100AD000AA6B019BB6DD22AC114604EBC6044200B2
:100AE000A3E722A800F048F83BE723F010032B60AF
:100AF00005F5E870019200F09DF8019AFFE628469E
:100B000022F0040240F8D02B019300F041F8019B41
:100B1000CFE72A68CBE7D0070AD5284622F00102A2
:100B200042F0020240F8482B019300F029F8019BA3
:100B300022AC20460193B84600F022F8A96B019B35
:100B4000002F7FF46DAF0A4607E70A468DE700BF26
:100B500000F1340191E838009C46A6464CF8045D4B
:100B600090E8FF0FE54600BD90EC210B704700BFF9
:100B700080EC210B704700BF90EC200B704700BF4A
:100B800080EC200B704700BFD0EC200B704700BFFB
:100B9000C0EC200B704700BFF0EC0201F0EC02113A
:100BA000F0EC0221F0EC0231F0EC0241F0EC0251E9
:100BB000F0EC0261F0EC0271F0EC0281F0EC0291D9
:100BC000F0EC02A1F0EC02B1F0EC02C1F0EC02D1C9
:100BD000F0EC02E1F0EC02F1704700BFE0EC020142
:100BE000E0EC0211E0EC0221E0EC0231E0EC024129
:100BF000E0EC0251E0EC0261E0EC0271E0EC028119
:100C0000E0EC0291E0EC02A1E0EC02B1E0EC02C108
:100C1000E0EC02D1E0EC02E1E0EC02F1704700BF51
:100C2000B0FC0181B0FC0191B0FC01A1B0FC01B1AC
:100C3000704700BFA0FC0181A0FC0191A0FC01A1B4
:100C4000A0FC01B1704700BFEC4600B52DE9005093
:100C50002DE9FF1F4FF000032DE90C0001A9FFF75C
:100C6000D7FBDDF840E012B0704700BFEC4600B59E
:100C70002DE900502DE9FF1F4FF000032DE90C0076
:100C800001A9FFF7FFFBDDF840E012B0704700BF9D
:100C9000EC4600B52DE900502DE9FF1F4FF0000391
:100CA0002DE90C0001A9FFF70FFCDDF840E012B0C0
:100CB000704700BFEC4600B52DE900502DE9FF1F3D
:100CC0004FF000032DE90C0001ABFFF7D1FBDDF87D
:100CD00040E012B0704700BFEC4600B52DE900506F
:100CE0002DE9FF1F4FF000032DE90C0001AAFFF7CB
:100CF00043FCDDF840E012B0704700BF027A7AB9D9
:100D0000437AA3B103214268013B10B443721368D4
:100D1000141D01721A024460026010BC180E704764
:100D20000368013A02721A020260180E7047B0207E
:100D3000704700BF002300B585B003AA0092194692
:100D40000C22FFF7D3FB039805B05DF804FB00BF4E
:100D5000F0E700BF2DE9F04305460E464FF00008CE
:100D600085B03046FFF7CAFFB028044600F0B080D7
:100D7000070620D500F0F003802B65D0902B36D0ED
:100D8000A02B78D0B02B47D0C02B00F0898000F08A
:100D9000F803D02B0BD100F00702013242F40022FD
:100DA000052301212846FFF791FD0028D9D009200D
:100DB00005B0BDE8F08300230DF10C09194687004A
:100DC000CDF800900D222846FFF790FBFFB2039B61
:100DD000043760064CBFDF1BFF180023CDF80090DE
:100DE00019460D2228460397FFF7A2FBB9E700F04A
:100DF0000D030D2BDBD0002303AF00F00F021946CB
:100E000000972846FFF772FB0023009719460D2232
:100E10002846FFF78DFBA4E7B1285ED0B22800F08A
:100E2000CB80B3287DD000F0FC03B42BBFD00123CE
:100E300000F007021A4442F4002219462846FFF740
:100E400045FD00288DD0B2E73046FFF757FF24025A
:100E50000443B4F5004FAAD000232401A2B21946DE
:100E60002846FFF733FD0028A1D114F4004F18BF26
:100E70004FF0010875E7C3434FF47F6203F00703A7
:100E80001A410023010702F47F6248BF42F4804206
:100E900019462846FFF71AFD00283FF462AF86E79F
:100EA000C62851D0C7285AD000F0F803C02B69D00B
:100EB000C82875D0C9287FF47AAF3046FFF71EFFE7
:100EC000020300F00F0002F470220130024367E7D2
:100ED000B8F1000F14D000206AE73046FFF70EFF8C
:100EE00000283FF464AF10F0F0037FF460AF0246D7
:100EF00019462846FFF7EAFC00283FF432AF56E7D0
:100F000003AC43460E22414600942846FFF7EEFA12
:100F10000094284643460F224146FFF709FB40460E
:100F200046E73046FFF7EAFE0123010300F00F0019
:100F300001F47021C2180A4328461946FFF7C6FC7F
:100F400000283FF40EAF32E73046FFF7D7FE01032B
:100F500000F00F00032301F47021421CEBE7304640
:100F6000FFF7CCFE024600283FF421AF10F0F0035B
:100F70007FF41DAF04212846FFF7A8FC00283FF4AA
:100F8000F0AE14E7032300F00F02013242F42022F6
:100F900019462846FFF79AFC00283FF4E2AE06E720
:100FA0003046FFF7ABFE00F0F00200F00F03103206
:100FB000013343EA0232F3E600230DF10C090D225E
:100FC0001946CDF800902846FFF790FA3046FFF713
:100FD00095FE02064FF002070CD5039B00F07F0040
:100FE000B840034430460393FFF788FE030607F139
:100FF0000707F2D40023039A00F07F04BC4002F5F7
:1010000001721444CDF8009019460D22284603942D
:10101000FFF78EFAA5E600BF30B503240D46C36C7A
:1010200085B05A688DF80C40DC791202083301A9AA
:10103000284601928DF80D400293FFF78BFE05B014
:1010400030BD00BF08B5FFF783FE806C08BD00BF50
:1010500008B5FFF77DFEC06CC37900EB8300083054
:1010600008BD00BF08B506F08FF900BF08B5FFF74F
:10107000F9FF00BF10F8012B11F8013B012A28BF2E
:101080009A42F7D0D01A7047704700BF704700BF30
:10109000704700BF10B50446142106F063F82046DF
:1010A00010BD00BF10B50446034B4068236008B173
:1010B00005F028FF204610BDCC86000810B5044678
:1010C000054B4068236008B105F01CFF2046102145
:1010D00006F048F8204610BDCC8600081F4AC368B9
:1010E00070B505460260EBB153F8040C1C4E00EBE2
:1010F000400003EB80009842A0F10C0409D050F8A6
:101100000C2C1268B24220D120469842A0F10C0467
:10111000F5D150F8041C083801EB41018900083171
:1011200006F024F86C6874B123680E4A5B68934239
:1011300010D10D4B6068236008B105F0E3FE204636
:10114000102106F00FF8284670BD20469047EB6846
:101150002046DAE720469847284670BDDC8600081E
:1011600089100008BD100008CC86000870B505463F
:101170001F4A204B0069C5E90023E8B150F8043C40
:101180001D4E03EB430300EB83039842A3F10C04D1
:1011900009D053F80C3C1B68B34220D12346984237
:1011A000A3F10C04F5D150F8041C083801EB4101FF
:1011B0008900083105F0DAFFAC6874B123680F4A82
:1011C0005B68934210D10E4B6068236008B105F054
:1011D00099FE2046102105F0C5FF284670BD204627
:1011E000984728692346DAE720469847284670BD85
:1011F000EC860008DC86000889100008BD10000895
:10120000CC860008234AC36870B505460260EBB17E
:1012100053F8040C204E00EB400003EB8000984292
:10122000A0F10C0409D050F80C2C1268B24224D161
:1012300020469842A0F10C04F5D150F8041C08385F
:1012400001EB41018900083105F090FF6C6874B131
:101250002368124A5B68934214D1114B6068236083
:1012600008B105F04FFE2046102105F07BFF28460F
:10127000102105F077FF284670BD20469047EB68A7
:101280002046D6E7204698472846102105F06AFFF9
:10129000284670BDDC86000889100008BD100008D3
:1012A000CC86000870B50546234A244B0069C5E981
:1012B0000023E8B150F8043C214E03EB430300EB5C
:1012C00083039842A3F10C0409D053F80C3C1B682B
:1012D000B34224D123469842A3F10C04F5D150F82F
:1012E000041C083801EB41018900083105F03EFF7C
:1012F000AC6874B12368134A5B68934214D1124BF3
:101300006068236008B105F0FDFD2046102105F05E
:1013100029FF2846142105F025FF284670BD2046E8
:10132000984728692346D6E720469847284614213F
:1013300005F018FF284670BDEC860008DC86000822
:1013400089100008BD100008CC86000810B50446BE
:101350000C2105F007FF204610BD00BF00232DE93A
:10136000F04F524A83710260C37183B080461420EB
:10137000019105F0DAFA022307464D494D4A016012
:1013800010207A603B7305F0D0FA04463D7B4A4B4F
:101390002846236005F0E8FE002197F80C90474AA4
:1013A00009EB49039B0003F1080B6060A5735846E5
:1013B000BC60A181A26005F0D7FE0C238246C0E983
:1013C000003900F1080409F1FF35B9F1000F08D028
:1013D0002646304600F0E0F8013D6B1C06F10C0695
:1013E000F7D13A7B3C61C2B10025354E04E00135AE
:1013F000EDB2954211D23C6905EB450054F820301E
:1014000004EB8000DB68B342F1D06AB2B968984758
:101410003A7B0135EDB29542EDD3C8F808701C2037
:1014200005F083FA01990222044600F0EFF9C8F8AA
:101430000C40182005F079FA0221044600F0F4FB74
:1014400000234046C8F8104088F8043088F805307A
:1014500003B0BDE8F08F3846142105F083FE05F097
:10146000CAFD2046182105F07DFE05F0C4FD20468A
:101470001C2105F077FE05F0BEFD94B10C23A9EB0D
:10148000050503FB05450C3DAC420AD055F80C3D63
:101490001B6828469847F7E72046102105F062FEB2
:1014A000D9E75946504605F061FED4E7FC860008AE
:1014B000EC860008DC860008CC8600080000FFFFF0
:1014C0008D10000838B5C37933B1012B044604D020
:1014D000022B3BD0032B18D038BDC06800F030FA87
:1014E000E3681D7B65B319690A79A2F10102B2FABA
:1014F00082F2520922711B7B012B1AD991F82430F8
:10150000012B13D00023637138BD83681D7BBDB1EF
:1015100019690A79A2F10102B2FA82F25209027142
:101520001B7B012B05D90B7C012BEBD101236371B4
:1015300038BD3621164803F03FFE00231B79FFDE3D
:101540003621134803F038FE2B79FFDE83790069DA
:10155000CBB1037B002BECD003691A79012A0DD0A3
:1015600000222271027B012AE3D993F82430012B57
:10157000C8D1A279002AC5D16371C5E7A179002934
:10158000EED12271EEE700F0C1FB2069E1E700BF78
:1015900004870008704700BF0221024A01710260FF
:1015A000704700BF28860008704700BF1D4AC36807
:1015B00070B505460260CBB153F8040C1A4E03EB2C
:1015C00040109842A0F1200409D050F8202C126855
:1015D000B2421ED120469842A0F12004F5D150F825
:1015E000041C08384901083105F0C0FD6C6874B16D
:1015F00023680E4A5B68934210D10D4B60682360EC
:1016000008B105F07FFC2046102105F0ABFD28460F
:1016100070BD20469047EB682046DCE7204698479F
:10162000284670BD74870008A9150008BD10000881
:10163000CC86000870B505461D4A1E4B0069C5E9F9
:101640000023C8B150F8043C1B4E00EB43139842F2
:10165000A3F1200409D053F8203C1B68B3421ED1EB
:1016600023469842A3F12004F5D150F8041C083811
:101670004901083105F07AFDAC6874B123680F4A5E
:101680005B68934210D10E4B6068236008B105F08F
:1016900039FC2046102105F065FD284670BD204626
:1016A000984728692346DCE720469847284670BDBE
:1016B0008487000874870008A9150008BD10000879
:1016C000CC860008214AC36870B505460260CBB1DC
:1016D00053F8040C1E4E03EB40109842A0F1200476
:1016E00009D050F8202C1268B24222D120469842EC
:1016F000A0F12004F5D150F8041C08384901083144
:1017000005F034FD6C6874B12368124A5B6893423B
:1017100014D1114B6068236008B105F0F3FB20463B
:10172000102105F01FFD2846102105F01BFD28465D
:1017300070BD20469047EB682046D8E72046984782
:101740002846102105F00EFD284670BD748700085C
:10175000A9150008BD100008CC86000870B5054624
:10176000214A224B0069C5E90023C8B150F8043C66
:101770001F4E00EB43139842A3F1200409D053F805
:10178000203C1B68B34222D123469842A3F1200497
:10179000F5D150F8041C08384901083105F0E6FC81
:1017A000AC6874B12368134A5B68934214D1124B3E
:1017B0006068236008B105F0A5FB2046102105F004
:1017C000D1FC28461C2105F0CDFC284670BD2046E2
:1017D000984728692346D8E72046984728461C2181
:1017E00005F0C0FC284670BD848700087487000897
:1017F000A9150008BD100008CC86000810B50446E5
:10180000202105F0AFFC204610BD00BF2DE9F04FB0
:101810009246454B454A83B0C0E90023044680F810
:101820000CA01020019105F080F80546267B404B66
:1018300030462B6005F098FC002294F80C803D4B5C
:101840004FEA481101F1080B6860AE73AB60A56008
:10185000AA81584605F088FC20238146C0E900385B
:1018600000F1080508F1FF36B8F1000F08D02F4647
:10187000384600F031FB013E731C07F12007F7D119
:10188000237B256143B3002600E0256970012B58B6
:1018900072B22844DB68A16898470136227BF6B211
:1018A000B242F2D80023FF2101982176606163766D
:1018B000A3766AB12049256901FB0AF11F4805EBAF
:1018C0004312C2E906010133227BDBB29A42F6D809
:1018D000204603B0BDE8F08FFF22204601996376D1
:1018E0006161A376227603B0BDE8F08F284610210F
:1018F00005F038FC05F07FFB7DB108F1006808F1C8
:10190000FF38A8EB060805EB4818454505D058F800
:10191000203D1B6840469847F7E75946484605F082
:1019200025FC05F068FB00BF748700088487000869
:10193000CC8600080000FFFFC0270900E0930400E8
:10194000F0B5074683B0406903F01EFC674BC0F357
:101950000721C0F307428DF801108DF800008DF8C3
:1019600002200098196803F0BFFB18B97B7E63B9A9
:1019700003B0F0BD786903F0EDFBC3B2032B019017
:10198000F4D101227B7E7A76BB763B7B002B40D064
:10199000002425463E696301F2581E443046936890
:1019A0009847337901343A7B012BE4B208BF012513
:1019B0009442EFD3BC68B4F90C601EB1002D2DD059
:1019C0000AB9D5E78AB13969501E01F12003C0B2C6
:1019D00003EB401000E020330C791946012C08BFBE
:1019E00001258342F7D1002EC2D1002DC0D17B7ECC
:1019F0007D76BB76002ABBD038696B01C25818448B
:101A00009368984701353B7BEDB2AB42F4D803B005
:101A1000F0BDBC68B4F90C60002E32D06268B4F935
:101A2000083097F91800D15688422ED0A27BB4F91D
:101A30000830013A013E61689342A681C9560EBF43
:101A4000002301331BB223813A7BCBB29A4211D9D6
:101A500001243A695B01D01884713976D3589B68A8
:101A60009847BB683A7BB3F90C601546002ABAD098
:101A70000025A8E736211E4803F09EFB00239B713A
:101A8000FFDE7B7E7E76BB7672E7711EA67B09B297
:101A9000701E8342A181D5560EBF002301331BB2B5
:101AA000B142238117D0B4F90A30013183420FBF0C
:101AB000002301331BB2D218A18163811570BC6869
:101AC000B4F90C60002EB1D12A210A4803F074FB4E
:101AD000B4F90C60AAE72021064803F06DFBA07B57
:101AE000B4F90C1062680138DDE700BF38860008E1
:101AF000048700088C87000870B505461D4A1E4BF8
:101B00000069C5E90023C8B150F8043C1B4E00EB46
:101B100043139842A3F1200409D053F8203C1B68DA
:101B2000B3421ED123469842A3F12004F5D150F8C8
:101B3000041C08384901083105F018FBAC6874B181
:101B400023680F4A5B68934210D10E4B6068236094
:101B500008B105F0D7F92046102105F003FB28460F
:101B600070BD2046984728692346DCE72046984701
:101B7000284670BDEC87000874870008A915000886
:101B8000BD100008CC86000870B50546214A224BDE
:101B90000069C5E90023C8B150F8043C1F4E00EBB2
:101BA00043139842A3F1200409D053F8203C1B684A
:101BB000B34222D123469842A3F12004F5D150F834
:101BC000041C08384901083105F0D0FAAC6874B13A
:101BD0002368134A5B68934214D1124B60682360F8
:101BE00008B105F08FF92046102105F0BBFA284610
:101BF000182105F0B7FA284670BD20469847286995
:101C00002346D8E7204698472846182105F0AAFA27
:101C1000284670BDEC87000874870008A9150008E5
:101C2000BD100008CC860008344B354A2DE9F0473A
:101C3000C0E9002305460173102004F076FE044637
:101C40002E7B304B3046236005F08EFA002295F84B
:101C50000C802D4B4FEA481909F108096060A67302
:101C6000A360AC60A281484605F07EFA202382463C
:101C7000C0E9003800F1080608F1FF34B8F1000FA0
:101C800008D03746384600F027F9013C631C07F1BD
:101C90002007F7D12B7B2E6173B1002400E02E6961
:101CA0006001335862B2DB683044A9689847013458
:101CB0002B7BE4B2A342F2D8FF232B752846BDE864
:101CC000F0872046102105F04DFA05F094F97EB119
:101CD00008F1006808F1FF38A8EB040406EB44148F
:101CE000A64205D054F8203D1B6820469847F7E7E8
:101CF0004946504605F03AFA05F07DF97487000828
:101D0000EC870008CC8600080000FFFF2DE9F041B9
:101D1000037B0646002B3BD0002427463569630130
:101D2000EA581D442846936898472A790134337B42
:101D3000012AE4B208BF0127A342EFD8B468B4F97E
:101D40000C3053B34FBB6168B4F9082096F91450B6
:101D5000885685422AD0A17BB4F90820013BA38193
:101D600060684B1E9A4281560EBF0022013212B2A9
:101D70002281327BCBB29A4211D9012432695B01B4
:101D8000D01884713175D358BDE8F0419B6818476D
:101D90008468B4F90C30002BD5D1BDE8F081362130
:101DA0001A4803F009FA00239B71FFDEA77B013B71
:101DB0001BB2781E8242A3818D560EBF00220132D3
:101DC00012B2BB42228117D0B4F90A2001338242F9
:101DD000A3810FBF0023531C1BB2C91863810D7070
:101DE000B468B4F90C30002BB5D12A21084803F0AF
:101DF000E3F9B4F90C30AEE72021054803F0DCF933
:101E0000A07BB4F90C3061680138DDE70487000875
:101E10008C87000808B5037BC9B28B4204D90369DB
:101E200003EB4111886908BD3621034803F0C4F96A
:101E300000239B69FFDE00BF0487000808B5037B11
:101E4000C9B28B4204D9036903EB4111C86908BDCB
:101E50003621034803F0B0F90023DB69FFDE00BF41
:101E60000487000808B5037BC9B28B4204D9036913
:101E700003EB4111086908BD3621034803F09CF9C2
:101E800000231B69FFDE00BF0487000808B5037B41
:101E9000C9B28B4204D9036903EB4111486908BDFB
:101EA0003621034803F088F900235B69FFDE00BF99
:101EB00004870008002330B40125064C4571C0E9B1
:101EC000064430BCC27181600371C0E903334361D1
:101ED00083717047E09304000121002230B4FF2495
:101EE000074D417107490560C4710271C0E90322C1
:101EF00030BC426182718260C0E90611704700BF48
:101F000044860008E0930400437970B50446EBB9B9
:101F1000C56803F0A5F8A84212D303F0A1F8E3685E
:101F2000C01A60B12369834294BF0020181A20614F
:101F300003F096F8A379E060CBB123696BB170BD73
:101F400003F08EF8E368DB431844EAE700234371AB
:101F500003F086F80546E060DBE7012102222368F2
:101F6000617122712046BDE870409B6818470121CD
:101F70000322236861719B68227120469847236978
:101F8000002BDCD1E9E700BF037970B53BB1012B31
:101F900049D0022B044622D0032B12D070BD4179C8
:101FA0000029FBD0046881684371A368002944D0EC
:101FB000012503248169457104710161BDE8704008
:101FC00018474379002B3ED18379002BE6D0BDE83A
:101FD0007040012302684371037193681847437985
:101FE000002B4FD1C56803F03BF8A8421FD303F084
:101FF00037F8E368C01A0028D0D06369834294BFE1
:102000000020181A606103F02BF86369E060002B70
:10201000C4D1012103222368617122712046BDE8E9
:1020200070409B681847BDE87040FFF76DBF03F034
:1020300017F8E368DB431844DDE7012401714471BC
:10204000BDE8704018470021D0E90623C0E9042309
:1020500085684171AB7BB5F90C2090F907609A4215
:102060001AD0A97BB5F90A30013901328B42AA8115
:102070000FD001331BB21A4600216B816B689E544E
:10208000A17170BD0023437102F0EAFF0546E060D4
:10209000A9E700221346EFE72021034803F08CF85C
:1020A000B5F90C20DDE700BF8C87000810B5634C44
:1020B000634B04F5F0700D22002102F07BFF04F564
:1020C000FC70604B0E22002102F074FF04F50470D6
:1020D0005D4B0F22002102F06DFF04F50A705B4B8F
:1020E0001022002102F066FF04F51070584B0A22FE
:1020F000002102F06BFF04F1D000564B03220021B7
:1021000002F058FF04F1E800534B0722002102F0CF
:1021100051FF04F58070514B0822002102F04AFF64
:1021200004F58C704E4B0922002102F043FF04F5A8
:1021300016704C4B1822002102F03CFF04F5A870E9
:10214000494B1722002102F035FF04F59870474BE8
:102150002122002102F03AFF04F5B470444B16220C
:10216000012102F027FF04F5C070424B1722012124
:1021700002F020FF04F5CC703F4B1822012102F041
:1021800019FF04F5D8703D4B1B22012102F012FF0C
:1021900004F5E4703A4B1C22012102F00BFF04F518
:1021A0001C70384B0522012102F004FF04F5227057
:1021B000354B0622012102F0FDFE04F52870334B59
:1021C0000722012102F0F6FE04F52E70304B0822A2
:1021D000012102F0EFFE20462E4B2A22012102F0BF
:1021E00007FF04F534702C4B2022002102F000FF81
:1021F00004F15000294B0922012102F0CFFE04F125
:102200006800274B0B22002102F0C8FE04F12000D9
:10221000244B1222002102F0C7FE04F13800224BA9
:102220001522002102F0C0FE04F180001F4B0122A4
:10223000BDE81040002102F0B7BE00BF98000020AA
:1022400044880008548800086488000874880008DE
:1022500084880008908800089C880008AC880008E2
:10226000B8880008C8880008D4880008E0880008FA
:10227000F0880008008900081089000820890008FB
:1022800030890008408900085489000868890008DE
:102290007C89000890890008A4890008B08900089A
:1022A000B8890008C4890008D0890008DC890008C2
:1022B000074A08B51368032043F01003136000F0C9
:1022C0001BF8002004F018FA04F0EAF8002008BD1A
:1022D00000200240034A044B11681B780B44136032
:1022E000704700BF8413002000000020014B1868D5
:1022F000704700BF84130020C31E042B10B5044692
:1023000003D9A221084804F0C9F84FF6FF01074A93
:102310002402D36804F4E0640B4043F0BF6343F449
:1023200000331C43D46010BDE889000800ED00E0D4
:102330000F2A70B5164605460C4629D80F2C2DD805
:102340001C4BDB68C3F30223C3F10701042903F12B
:10235000040228BF0421062A17D94FF0FF32033B9D
:102360009A4026EA02064FF0FF328A4024EA02022F
:102370009A4032431201002DD2B214DB05F16045C0
:1023800005F5614585F8002370BD00263346EAE770
:10239000BA21094804F082F80F2CD1D9BB21064894
:1023A00004F07CF8CCE7054B05F00F052B441A76BA
:1023B00070BD00BF00ED00E0E8890008FCEC00E023
:1023C00010B5041E08DB012304F01F01054A8B40F1
:1023D000640942F8243010BDCE21034804F05EF8B1
:1023E000F1E700BF00E100E0E8890008002871D0B3
:1023F000F8B54F4A03680446934215D0143293420D
:1024000012D0143293420FD0143293420CD01432B3
:10241000934209D01432934206D01432934203D02F
:10242000AA21444804F03AF8636833F0100202D05D
:10243000B3F5804F61D1A36833F040034CD1E3681A
:1024400033F0800350D1236933F4807202D0B3F5A6
:10245000007F5BD1636933F4806202D0B3F5006F13
:102460005DD1A36933F0200303D0B021314804F0DB
:1024700015F8E66936F4405304D0B1212D4804F034
:102480000DF8E6690021D4E901324FF0010CE7684C
:1024900013433B4327692068274A65693B43274F1D
:1024A00002442B43A7FB0252A76912093B4307686A
:1024B000920027F47F5727F0300722643B43204ADD
:1024C0003343E26303600846A16384F8201084F874
:1024D00021C0F8BD01207047AC21164803F0DEFF93
:1024E000E36833F08003AED0AD21124803F0D6FF8D
:1024F000236933F48072ADD0A9E7AB210D4803F016
:10250000CDFFA36833F0400399D0E5E7AE21094839
:1025100003F0C4FF636933F48062A2D09EE7AF2169
:10252000044803F0BBFFA36933F02003A1D09CE76C
:1025300008000240248A0008F8FFFDBFCDCCCCCCB7
:10254000000002402DE9F0411D464FF6FE736E1E5D
:102550009E4204460F46904636D894F82030012B10
:102560003BD0012394F8210084F8203098424FF0AA
:10257000000324D14FF0020C2168A3630B68226C86
:1025800023F0010390406268E66B84F821C00B6081
:10259000E36A102A70604D600BBFC1F808808F603D
:1025A000CF60C1F80C80DBB10B6843F00E030B6009
:1025B0000B68002043F001030B60BDE8F0810220AE
:1025C00084F82030BDE8F08140F27F11094803F023
:1025D00065FF94F82030012BC3D10220BDE8F081C3
:1025E0000B6823F004030B600B6843F00A030B60D5
:1025F000DEE700BF248A000838B590F82130022BAE
:1026000004D0042201248263204638BD03681D499A
:102610001A688B4222F00E021A601A6822F0010238
:102620001A6021D0184A93421CD0143293421DD014
:10263000143293421DD0143293421DD0143293426F
:102640000CBF4FF480134FF08073012100240F4D15
:10265000426B6B6080F8211080F820407AB190477F
:10266000204638BD1023F0E70123EEE74FF48073D6
:10267000EBE74FF48053E8E74FF48033E5E7144687
:10268000C2E700BF080002401C00024000000240F8
:10269000042270B4D0E90F61346803688A40224292
:1026A0001D681FD06A071DD51A68910603D41A68E1
:1026B00022F004021A603F4A93425CD014329342E3
:1026C00061D01432934268D0143293426BD01432EA
:1026D00093425DD0143293420CBF4FF480034FF00D
:1026E000806349E002228A40224222D0AA0720D5F4
:1026F0001A68910606D401211A6822F00A021A60AB
:1027000080F821102B4A93422BD01432934242D0AE
:102710001432934244D01432934236D0143293424E
:1027200044D0143293420CBF4FF400134FF00073A7
:1027300018E008228A4022421BD02A0719D501221C
:1027400000251C6802FA01F124F00E041C60036BE2
:102750007160826380F8212080F820504BB170BCFA
:10276000184702230021144C826A636080F820100D
:102770003AB970BC704704230F49C26A4B60002A03
:10278000F7D070BC10474023F6E74FF40053E9E759
:102790004FF48023F0E72023E4E74FF48063EBE776
:1027A0004FF40073DEE74FF48043E5E74FF4003366
:1027B000D8E700BF08000240000002402DE9F04FBA
:1027C000C14B85B0984206460F4613D003F580638F
:1027D00098420FD003F5806398420BD003F58063D5
:1027E000984207D003F58063984203D0CD21B748C3
:1027F00003F054FE3B689AB2002A00F0DB801B0C09
:102800001B04002B40F0D6807B68032B17D9A3F163
:102810001102012A13D9AE4923F400128A420ED0C4
:1028200001F580118B420AD0A1F570218A4206D0B1
:10283000A84A934203D0CF21A44803F02FFE4FF0C3
:1028400000094D464B46DFF880B2B946DFF89CA23E
:102850003746DFF89C82A04A2E4603E00136102E50
:1028600000F0A5800124D9F80050B4402540AC42C6
:10287000F4D15F4514D0974212D098498F420FD0BF
:1028800001F580618F420BD001F580618F4207D046
:10289000DD218E48CDE9002303F000FEDDE90023B1
:1028A000D9F80410122900F0C58000F2A380022993
:1028B00000F0B98040F28B80032900F0B28011292A
:1028C00006D1D9F80C30591E022900F213810433C5
:1028D000FF2D74D8BC463868B1000F2404FA01FEFD
:1028E00020EA0E0003FA01F10143CCF80010D9F8F8
:1028F0000400C100B2D5DAF818C026F003014CF08C
:10290000010CCAF818C0DAF818C001F180410CF0C7
:10291000010CCDF80CC001F5803106F0030CDDF898
:102920000CE04FEA8C0CD1F808E004FA0CF42EEA23
:1029300004045F45009413D0974200F08280674CF6
:10294000A74200F0A680664CA7420CBF4FF0030ED2
:102950004FF0040E009C0EFA0CFC44EA0C040094A8
:102960008C60D8F80010C4034CBF2943A943C8F8B1
:102970000010D8F8041084034CBF2943A943C8F8B9
:102980000410D8F80810C4024CBF2943A943C8F862
:102990000810D8F80C10800206F101064CBF0D4358
:1029A00021EA0505102EC8F80C507FF45BAF05B086
:1029B000BDE8F08FCE21454803F070FD24E706F115
:1029C000804108397868890007F1040C85E709B36C
:1029D00001297FF47DAFD9F80C30591E02297FF60A
:1029E00077AFE5213948009203F058FDD9F80C3053
:1029F000009A6DE73B4881420CD03CD93A4881426D
:102A000008D000F58030814204D0A0F580108142CA
:102A10007FF45EAFD9F80830022B20D8CBB904235D
:102A200056E7002354E7D9F80C30591E022939D84B
:102A300008334DE7D9F80C30591E02293BD80C3326
:102A400046E74FF0010E0EFA0CFC44EA0C04009429
:102A500086E7012B0CBF3C617C61082338E740F21C
:102A600007111A48009203F019FDD9F80830009AAE
:102A7000002BD4D0EDE7A0F580108142CAD000F53C
:102A8000803081427FF424AFD9F80830022BC5D9B9
:102A9000E5E74FF0020E009C0EFA0CFC44EA0C0431
:102AA00000945DE7F3210948009203F0F7FCD9F8A0
:102AB0000C30009ABCE7FA210448009203F0EEFCC7
:102AC000D9F80C30009ABAE7000801405C8A000887
:102AD0000000111000002210000C01400010014005
:102AE00000140140000021100000311000100240CD
:102AF00000040140EC210448009203F0CFFCD9F817
:102B00000C30009AE3E600BF5C8A000870B5064608
:102B100015460C4661B1012D03D805B92404346172
:102B200070BD4FF4F271054803F0B8FC346170BD1C
:102B300040F2E311014803F0B1FCECE75C8A0008C5
:102B400038B505460C4621B940F2F911034803F0A7
:102B5000A5FCEB685C40EC6038BD00BF5C8A0008F7
:102B60000122014B1A60704720000E422DE9F0410E
:102B7000044682B0002800F0BD812368002B00F0DD
:102B8000B6801E0700F08081DD073CD5636833F412
:102B9000803207D0B3F5A02F04D040F27711AB48B4
:102BA00003F07CFCAA4A536803F00C03042B00F0EA
:102BB0006181536803F00C03082B00F057816368B0
:102BC000B3F5803F00F07B81002B00F0A981B3F5C5
:102BD000A02F00F00E829E4B1A6822F480321A60F9
:102BE0001A6822F480221A60FFF780FB984D06468F
:102BF00005E0FFF77BFB801B642800F277812B68E0
:102C00009A03F6D523689F0744D52369012B04D97D
:102C100040F2AB118D4803F041FC63691F2B00F2B9
:102C200099818B4B5A6812F00C0F25D05A6802F02C
:102C30000C02082A1DD02369002B00F0B08101226C
:102C4000844B834D1A60FFF751FB064605E0FFF702
:102C50004DFB801B022800F249812B689807F6D5AE
:102C60002B68626923F0F80343EAC2032B602368F0
:102C700010E05B68DE03DED4754B1B689D0700F136
:102C80000C81734A6169136823F0F80343EAC103B6
:102C9000136023681A072AD5A369012B05D94FF4BD
:102CA000F6716A4803F0FAFBA369002B00F0288153
:102CB0000122694B664D1A60FFF718FB064605E0D6
:102CC000FFF714FB801B022800F210816B6A9B0740
:102CD000F6D5624B624A1B68A2FB03235B0A019391
:102CE00000BF019B5A1E0192002BF9D123685D079A
:102CF0004CD5E368012B06D9052B04D040F21B21EB
:102D0000524803F0CBFB524BDA69D00000F1C3808C
:102D10000125DA6942F08052DA61DB6903F0805301
:102D20000093009B4F4B1A68D10540F1CE80E368B9
:102D3000012B0FD0002B00F01381052B444B1A6A96
:102D400000F04F8122F001021A621A6A22F0040296
:102D50001A6204E03E4A136A43F001031362FFF76C
:102D6000C5FA3B4E804641F2883706E0FFF7BEFACF
:102D7000A0EB0800B84200F2B980336A9B07F5D592
:102D800025B1334AD36923F08053D361E369022B21
:102D900000F28B80002B55D02D4A516801F00C01B8
:102DA00008297ED0022B40F00B81236A33F4803354
:102DB00004D040F2C221254803F070FB636A33F46B
:102DC000402223F4802110D0B2F5801F0DD0B2F53F
:102DD000001F0AD0B1F5401F07D0B3F5601F04D023
:102DE00040F2C321194803F059FB00221E4B184D35
:102DF0001A60FFF77BFA064604E0FFF777FA801BBC
:102E0000022873D82B689901F7D4216AB1F5803F65
:102E100000F0FC8001250E4B646A5A68124822F4C7
:102E2000741222430A435A6005601C46FFF75EFA9B
:102E3000054604E0FFF75AFA401B022856D82368DB
:102E40009A01F7D5002002B0BDE8F081988A000809
:102E50000010024000004242800442420C00002068
:102E6000D34D621000700040600042425368D803A6
:102E70007FF5A5AE6E4B1B6899037FF5C3AE636803
:102E8000002B7FF4BFAE0CE040F27111694803F0F3
:102E900005FB236878E6002544E72369012B3FF40E
:102EA000F0AE012002B0BDE8F08140F2B9216148E6
:102EB00003F0F4FAE369002B7FF46EAFC2E75C4ADB
:102EC000136843F4803313608EE61A681E4642F49A
:102ED00080721A60FFF70AFA07463368DA053FF591
:102EE00026AFFFF703FAC01B6428F6D9032002B00F
:102EF000BDE8F0814FF4B8714E4803F0CFFA3CE6DC
:102F00004D4A4B4D1360FFF7F1F9064604E0FFF719
:102F1000EDF9801B0228E9D86B6A9F07F7D4E5E634
:102F200003F1804303F504331A681D4622F480320E
:102F30001A601A6822F480221A60FFF7D7F9064651
:102F400004E0FFF7D3F9801B6428CFD82B689B03DC
:102F5000F7D457E64FF4D671364803F09FFA60E68F
:102F600003F1804303F504331A6A1E4622F001027E
:102F70001A621A6A41F2883822F004021A62FFF7D4
:102F8000B5F9074604E0FFF7B1F9C01B4045ADD8DD
:102F9000336A9807F7D4002D3FF4F8AEF1E6274ADC
:102FA000234D1360FFF7A2F9064604E0FFF79EF9F0
:102FB000801B02289AD82B689907F7D4236869E602
:102FC00000211F4B14461960FFF790F9054604E0F5
:102FD000FFF78CF9401B022888D823689B01F7D49F
:102FE00030E742F004021A621A6A42F001021A62E1
:102FF000B5E603F18043A3F53C331A6842F480221E
:103000001A601A6842F480321A60EDE5A26832F460
:10301000003306D040F2D921064803F03FFAA268F7
:10302000216A0348436823F4003313434360F1E605
:1030300000100240988A0008800442420000424288
:10304000600042422DE9F0410D4686B0044600285A
:1030500000F01B8123681E0700F0EB80022D00F2B8
:10306000E280934A136803F00703AB420DD2136862
:1030700023F007032B431360136803F00703AB42ED
:1030800003D0012006B0BDE8F081236898072CD555
:10309000590704D587494A6842F4E0624A601A0732
:1030A00004D584494A6842F460524A60A16831F00C
:1030B000800214D021F02002902A10D021F040028A
:1030C000A02A0CD021F01002C02A08D0F02906D086
:1030D00040F25631784803F0E1F9A1682368754859
:1030E000426822F0F0020A434260DB0729D5636898
:1030F000022B00F2D4806F4A012B126800F0CB80C3
:10310000022B00F0BE809007BBD56A4E41F2883892
:10311000726822F0030213437360FFF7E7F86368F5
:103120000746012B00F09080022B06D197E0FFF7B5
:10313000DDF8C01B404500F2B980736813F00C0F36
:10314000F5D15B4A136803F00703AB4209D9136852
:1031500023F007032B431360136803F00703AB420C
:103160008FD12368590718D5E16831F480620ED0F9
:1031700021F40072B2F5A06F09D0B1F5C06F06D08E
:1031800040F2B1314C4803F089F9E16823684948BD
:10319000426822F4E0620A4342601A0718D52269A5
:1031A00032F480630DD022F40073B3F5A06F08D021
:1031B000B2F5C06F05D04FF46E713F4803F06EF961
:1031C00022693C494B6823F4605343EAC2034B60D5
:1031D00040F20122394B06ACADF804200FCB04E9D4
:1031E0000F0034494A6802F00C03082B10D0344B0E
:1031F000304A344852683449C2F30312825C0020DA
:10320000D3400B6003F078FA002006B0BDE8F081EF
:10321000C2F38343234413F8100CD30325D42B4B60
:1032200003FB00F3E4E74FF44C71234803F036F955
:1032300017E740F22F31204803F030F90EE7FFF78F
:1032400055F8C01B404531D8736803F00C03042BBC
:10325000F5D176E7FFF74AF8C01B404526D87368DA
:1032600003F00C03082BF5D16BE74A68144BC2F34B
:10327000404203FB00F3224412F8142CB3FBF2F398
:10328000B6E796013FF541AFFBE640F22E310A4822
:1032900003F004F9DEE697033FF537AFF1E640F2BD
:1032A0005D31054803F0FAF8636824E70320E9E696
:1032B0000020024000100240988A0008548600084E
:1032C00000127A00AC8600080C00002000093D00C6
:1032D000044B05495B68054AC3F30223CB5C1068C5
:1032E000D840704700100240BC8600080C00002047
:1032F000044B05495B68054AC3F3C223CB5C1068E5
:10330000D840704700100240BC8600080C00002026
:1033100038B50D460446D0B105B30F22124B2260DA
:103320005A68124902F0030262605A6802F0F00221
:10333000A2605A6802F4E062E2605B68DB0803F4B2
:10334000E06323610B6803F007032B6038BD4FF483
:10335000A661074803F0A2F8002DDED140F23151FA
:10336000034803F09BF8D8E7001002400020024019
:10337000988A00082DE9F0410446006882B010F0F8
:10338000130F79D0C50732D5636833F4407303D087
:103390008221484803F082F8474BDA69D10049D5C9
:1033A000464B00251A68D20552D5434960680A6A1F
:1033B00012F440720FD000F4407393420BD00127F7
:1033C00000260B6A3E4A23F44070176016600862BC
:1033D000D8075ED46068384A136A23F44073034305
:1033E00013621DB1D36923F08053D3612068830732
:1033F0000FD5A26832F4404305D02E48C92103F00E
:103400004DF8A26820682C494B6823F440431343CD
:103410004B6010F010000AD0E26832F4800331D122
:10342000002025494B6823F4800313434B6002B00E
:10343000BDE8F081DA69012542F08052DA61DB698A
:1034400003F080530193019B1C4B1A68D205ACD446
:103450001A681E4642F480721A60FEF747FF07465C
:103460003368DB05A1D4FEF741FFC01B6428F7D900
:10347000032002B0BDE8F0810E487C2103F00EF875
:1034800020687FE740F225110A4803F007F8E26858
:10349000C6E70E46FEF72AFF41F288378046336AB8
:1034A0009A0797D4FEF722FFA0EB0800B842F6D99E
:1034B000DEE700BFD08A0008001002400070004024
:1034C0004004424210B5044640F2012286B0394B16
:1034D0000DF1180C14F0130FADF804200FCB0CE90C
:1034E0000F0020D0022C25D0102C2FD0012C02D080
:1034F000002006B010BD40F202322F490B6A1A407C
:10350000B2F5817F52D003F44073B3F5007F41D010
:10351000B3F5407FECD10B684FF2244013F4003F29
:1035200008BF0020E5E74FF4D371244802F0B6FF4E
:10353000022CD9D1FFF7DCFE1F4B5B68C3F381334C
:1035400001335B00B0FBF3F006B010BD1A4B5968B5
:10355000186810F08070CCD006A8C1F383420244F2
:1035600012F8100CCA031DD55B6806A9C3F34043CB
:103570000B44134A13F8143CB2FBF3F300FB03F0C3
:103580000D4B5B685B02B4D40E4B4000A3FB0030D4
:103590004008AEE74B6A49F6404013F0020F08BFFF
:1035A0000020A6E7084B03FB00F0E9E74FF40040DA
:1035B0009FE700BF6486000800100240D08A000820
:1035C00000127A00ABAAAAAA00093D00002800F068
:1035D000958038B502684E4B04469A4203D0FC21D0
:1035E0004C4802F05BFFA36833F0800208D023F45C
:1035F0000073B3F5807F03D0FD21464802F04EFFF3
:103600006368454AA3F58013934269D9637C03F04C
:10361000FF02002B6DD0022322686374536823F0ED
:1036200008035360FEF762FE054605E0FEF75EFE06
:10363000401BB0F57A7F4FD823685B681807F5D533
:10364000FEF754FE054605E0FEF750FE401BB0F5C0
:103650007A7F41D823685A689106F5D55968A068E1
:1036600041F010015960596821F00701596020B1FB
:103670002A490A6B22F001020A632849CA6A22F425
:1036800060720243CA626068421C39D0996885B290
:1036900021F00F0141EA10419960DA68120C12041E
:1036A0002A43DA605A6822F010025A60FEF71EFEC2
:1036B000054605E0FEF71AFE401BB0F57A7F0BD8F1
:1036C00023685B689B06F5D5012300226373E273D0
:1036D000A3731046637438BD04230120637438BD9E
:1036E000FE210C4802F0DAFE637C03F0FF02002B9F
:1036F00091D12274204602F0FBFE8CE70120704736
:103700000120FFF7DFFE0028E6D023680138BDE77F
:10371000002800400C8B0008FEFFEFFF006C00400B
:10372000002800F09B80002900F09880012A70B5E5
:10373000044616460D4600F28780237C012B00F0DC
:10374000D08002230122637422742B78002E40F073
:103750008D80172B00F2D4806B783B2B00F2CA804F
:10376000AB783B2B00F2BF804FF461616A782E7812
:10377000C2EB0212920001FB0622D618FEF7B6FD3C
:10378000054605E0FEF7B2FD401BB0F57A7F67D82D
:1037900023685A689206F5D55868310C40F010003D
:1037A000B2B258609961DA615A6822F010025A6028
:1037B000FEF79CFD054605E0FEF798FD401BB0F5C1
:1037C0007A7F4DD823685A689006F5D55A6822F05A
:1037D00005025A601A6A5D6AADB245EA02456B1C81
:1037E0002DD0AE422BD9FEF781FD064605E0FEF74F
:1037F0007DFD801BB0F57A7F32D823685A68910628
:10380000F5D55A6805F5A83505F5C075290C42F0BF
:103810001002ADB25A6019625D625A6822F010025D
:103820005A60FEF763FD054605E0FEF75FFD401BAD
:10383000B0F57A7F14D823685B689A06F5D5012322
:1038400000206374207470BD40F2E9113D4802F01D
:1038500025FE237C012B7FF474AF42E001207047EA
:103860000422002362742374012070BD1A0902EB44
:10387000820203F00F0303EB4203DBB2172B5AD88B
:103880006B781A0902EB820203F00F0303EB420389
:10389000DBB23B2B49D8AB78190901EB810203F06D
:1038A0000F0101EB4201C9B23B292FD84FF46166E9
:1038B0006A782878130903EB830502F00F0303EB02
:1038C00045030209DBB202EB820200F00F00C3EBFA
:1038D000031300EB42009B00C0B206FB00335E18EE
:1038E0004CE7022070BD4FF4FA71164802F0D6FD85
:1038F000AB7839E740F2F311124802F0CFFD2FE721
:103900004FF4F9710F4802F0C9FD25E74FF4FF713C
:103910000C4802F0C3FDAB78190901EB810203F0FA
:103920000F0101EB4201C9B2C0E740F2FD110548A9
:1039300002F0B4FDAFE74FF4FE71024802F0AEFDB5
:103940009EE700BF0C8B0008002800F016810029BC
:1039500000F01381012A2DE9F84F044615460E4662
:1039600000F2018122685368590700F1F9809169DA
:10397000D76993691FFA81FC98B2844500F0FF80F3
:10398000D769BFB247EA03474FF46160C74BC849E4
:10399000A3FB07C3DB0A00FB1370A1FB00C14909AD
:1039A000C1EB011CA0EB8C00172B7170B07040F2C2
:1039B000EA80C049A1FB0301090901EB4101A3EB26
:1039C000C1033370116A536A1FFA83F848EA014849
:1039D000B8F1FF3F05D047452CBF4FF0FF38A8EBAB
:1039E0000708FEF783FC814607E0FEF77FFCA0EBAB
:1039F0000900B0F57A7F00F2B38023685A68920616
:103A0000F3D5AD4AAD49A2FB07294FEA194901FB9D
:103A100019795A684FEA194042F010021FFA89F1E9
:103A20005A609861D9615A6822F010025A60FEF714
:103A30005DFC824607E0FEF759FCA0EB0A00B0F5FA
:103A40007A7F00F28D8023685B689B06F3D5B8F11E
:103A5000FF3F00F00B81FEF749FC824606E0FEF7CF
:103A600045FCA0EB0A00B0F57A7F79D823685A6844
:103A70009006F4D55968C8444FEA18401FFA88F2F6
:103A800041F01001596018625A625A6822F010021F
:103A90005A60FEF72BFC804606E0FEF727FCA0EB01
:103AA0000800B0F57A7F5BD823685B689906F4D587
:103AB000814BE07BA3FB07373F0C637BA27B00F0CD
:103AC000A98000214FF064094FF4C878DFF8F8E1CD
:103AD0003AE0052B00F0C680072B00F00681082B8A
:103AE00000F020810A2B00F026810C2B00F02881A9
:103AF000042B00F03081062B00F03681092B00F0FA
:103B000036810B2B00F036811FFA80FAAEFB0AB12A
:103B10004FEAD11B08FB1BAB490909FB11A11FFA96
:103B20008BFB89B20AF0030ABBF1000F00F025817C
:103B3000002940F06181BAF1000F56D1022B614695
:103B400000F098818F4265D9012B01F1010C5DD005
:103B5000032BBED11E2A56D9042361460122F1E768
:103B60000120BDE8F88F4FF41371554802F096FC20
:103B7000226853685907F3D4F9E601207047BFB2B1
:103B800047EA014700E7337065B33378092B40F209
:103B9000D08000220A3BDBB2092B02F10102F9D8E6
:103BA0001201D1B272780B43092A337040F2BF8000
:103BB00000230A3AD2B2092A03F10103F9D81B0102
:103BC000D9B2B3780A43092B72704FF0000207D9BB
:103BD0000A3BDBB2092B02F10102F9D81201D2B281
:103BE0001343B3700020BDE8F88F022B6146A9D1C2
:103BF0001B2A00F22A81674502F1010240F221816D
:103C00000CF1010CF1E7013261469BE71E2AFAD95B
:103C10000223A2E72B4F03EB4301C3EBC101A7FB38
:103C20000171022BE0736373A2734FEA510100F537
:103C3000FA6767D924483A44A0FB073002320A44A5
:103C400002EB970202EBD012204BA2EB5012A3FB27
:103C50000213D11A03EB51039B08C3EBC303D31A1E
:103C6000237391E71E2ACED9062376E7FEF73EFBA3
:103C7000804607E0FEF73AFBA0EB0800B0F57A7F3C
:103C80003FF66EAF23685A689206F3D54FF6FF7180
:103C90005A6842F010025A60196259625A6822F05A
:103CA00010025A60FEF722FB804619E0C5B3A291CC
:103CB00089888888ABAAAAAA07452EC2805101002C
:103CC0000C8B0008398EE3381F85EB51254992246F
:103CD000FEF70CFBA0EB0800B0F57A7F3FF640AF93
:103CE00023685B689B06F3D5E2E61E2A8BD908237E
:103CF00033E7012702213B463A46A773E07363731B
:103D000000F5FA67754B00F2CF703A44A3FB003719
:103D100004320A4402EB900202EBD712704BA2EB82
:103D2000571294E71E2A7FF66EAF092315E700218C
:103D300047E7002136E71E2A7FF665AF0B230CE725
:103D40001E2A7FF660AF674500F10100D1D902312C
:103D500002220123F6E64FF0050A1D2A7FF653AF33
:103D6000614653460122EDE64FF0070AF5E74FF0B2
:103D70000A0AF2E74FF00C0AEFE7F1B9BAF1000FC7
:103D80000CD1022B61467FF4DDAE1B2A53D8674568
:103D900002F1010255D90CF1010CF2E7022B614648
:103DA0007FF4D0AE1B2A58D91C2A7BD01D2A79D08B
:103DB000674546D90CF1010CF0E7BAF1000F0ED1BE
:103DC000022B61467FF4BEAE1B2A48D91C2A7DD047
:103DD0001D2A67D0674534D90CF1010CF0E7022B9E
:103DE00061467FF4AFAE1B2A4FD8674502F101024E
:103DF00027D90CF1010CF2E7BAF1000F0CD1022B1C
:103E000061467FF49FAE1B2A2BD8674502F1010261
:103E100017D90CF1010CF2E7022B61467FF492AE48
:103E20001B2A25D91C2A3DD01D2A3BD0674508D91D
:103E30000CF1010CF0E71C2A30D01D2A32D0674566
:103E4000A9D8D7B20521022357E71C2A2AD01D2A58
:103E500028D067453FF6D4AEF3E70132A8E7013238
:103E6000B8E71C2A36D01D2A1CD06745D1D8E8E710
:103E70000132DBE71B2A0FD91C2A13D01D2A11D0CF
:103E80006745DED90CF1010C58E61C2A0AD01D2A20
:103E900008D06745ADD8D4E70132F1E7674508D9C6
:103EA0001D2278E7674508D90CF10101022203239E
:103EB00048E61D2705213A461FE703230122E07348
:103EC00000F5FA676373A2730721B3E66745F0D97B
:103ED0001D2281E76745ECD91D229AE71F85EB512A
:103EE00025499224002868D0002966D0012AF8B517
:103EF000044616460D4657D8237C012B00F0B080AF
:103F00000223012263742274EB78002E57D1632BB5
:103F100000F2B4806B78013B0B2B00F2C180AB78D0
:103F2000013B1E2B00F2B680E878E073697861737C
:103F3000AB78A373974E01EB4102C1EBC202A6FB23
:103F40000262022900F5FA664FEA520278D99249D4
:103F50000733A1FB06013344134403EB96038F4A56
:103F6000A3EB5113A2FB0312991A02EB5102920820
:103F7000C2EBC2029A1AD2B222732A7023689969DC
:103F8000DD699A698EB290B2864200F08F80DD6959
:103F9000834BADB245EA02459D4200F28E8001237B
:103FA000002063742074F8BD40F2BB217D4802F00C
:103FB00075FA237C012BA3D152E0012070471A0926
:103FC00002EB820203F00F0303EB4203DBB2632B2D
:103FD0005AD86B781A0903F00F0302EB8202013BF7
:103FE00003EB4203DBB20B2B42D8AB781A0903F088
:103FF0000F0302EB8202013B03EB4203DBB21E2BF9
:1040000030D8EA78110901EB810102F00F0202EBCE
:104010004101C8B2E0736A78110901EB810102F035
:104020000F0202EB4102D1B26173AA78130903EBCC
:10403000830602F00F0303EB4603DBB2A37379E7B9
:10404000554F00F2CF71A7FB017004333344134482
:1040500003EB910303EBD013504AA3EB501381E71A
:104060000220F8BD40F2D1214E4802F017FAC8E70D
:104070004FF434714B4802F011FAB6E74FF4317146
:10408000484802F00BFA45E740F2CF21454802F0DC
:1040900005FA9EE740F2C621424802F0FFF943E7E5
:1040A00040F2C5213F4802F0F9F938E7ADB23C4B88
:1040B00045EA01459D427FF672AFFEF717F90646C5
:1040C00005E0FEF713F9801BB0F57A7F5BD8236813
:1040D0005A689706F5D5344E344AA6FB0516360CB9
:1040E00002FB16565A68300C42F01002B1B25A6008
:1040F0009861D9615A6822F010025A60FEF7F6F80A
:10410000054605E0FEF7F2F8401BB0F57A7F3AD895
:1041100023685A689006F5D51A6A5D6AADB245EA19
:1041200002456B1C3FF43BAFAE427FF638AFFEF763
:10413000DDF8064605E0FEF7D9F8801BB0F57A7F7A
:1041400021D823685A689106F5D55A6805F5A8352F
:1041500005F5C075290C42F01002ADB25A60196223
:104160005D625A6822F010025A60FEF7BFF80546F9
:1041700023685B689A063FF512AFFEF7B7F8401B5D
:10418000B0F57A7FF4D904220023627423740120ED
:10419000F8BD00BF398EE3381F85EB5125499224C5
:1041A0008F5F01000C8B000807452EC28051010073
:1041B00000285FD000295DD0012A2DE9F84F044680
:1041C00090460F464CD823685A68520745D49969DF
:1041D000DD699A698EB290B286424DD0DD69ADB28A
:1041E00045EA0245C04A95424AD8237B3B70E67BAC
:1041F000FE70657B7D70A37BBB70B8F1000F29D08A
:10420000092E4FF0000207D90A3EF6B2092E02F13C
:104210000102F9D81201D2B21643092DFE704FF0F7
:10422000000207D90A3DEDB2092D02F10102F9D8C9
:104230001201D2B21543092B7D704FF0000207D94D
:104240000A3BDBB2092B02F10102F9D81201D2B20A
:104250001343BB700020BDE8F88F0120BDE8F88F44
:1042600040F22D31A14802F019F923685A6852072B
:10427000F3D4ACE701207047ADB245EA0145B1E7A0
:104280001A6A5E6AB6B246EA0246731C04D0B542A8
:104290002CBF4FF0FF36761BFEF728F8814606E06C
:1042A000FEF724F8A0EB0900B0F57A7FD5D8236893
:1042B0005A689006F4D58E4A8E49A2FB05294FEA2A
:1042C000194901FB19595A684FEA194042F0100286
:1042D0001FFA89F15A609861D9615A6822F0100278
:1042E0005A60FEF703F8824606E0FDF7FFFFA0EBF9
:1042F0000A00B0F57A7FB0D823685B689906F4D5D8
:10430000731C00F0C180FDF7F1FF824606E0FDF767
:10431000EDFFA0EB0A00B0F57A7F9ED823685A68BB
:104320009206F4D55A684E44310C42F01002B6B2EF
:104330005A6019625E625A6822F010025A60FDF7F4
:10434000D5FF064605E0FDF7D1FF801BB0F57A7F6B
:1043500083D823685B689806F5D5654BE67BA3FB9D
:104360000523A17B627B1B0C0020DFF890914FF0AE
:10437000640E4FF4C87C3AE0052A00F08180072AD9
:1043800000F0AD80082A00F0D6800A2A00F0D8801C
:104390000C2A00F0DA80042A00F0E280062A00F0FD
:1043A000E880092A00F0E8800B2A00F006811FFA55
:1043B00086FAA9FB0AB04FEAD01B0CFB1BAB4009E5
:1043C0000EFB10A01FFA8BFB80B20AF0030ABBF1B0
:1043D000000F00F0D480002840F00F81BAF1000FE8
:1043E00011D1022A284600F0448183421FD9012AB4
:1043F00000F1010517D0032ABED11E2910D90422CD
:1044000028460121F1E7022A2846EED11B2900F2B5
:104410001B819D4201F1010180F012810135F2E71B
:1044200001312846E1E71E29FAD90222E8E7324B9A
:1044300002EB4200C2EBC000A3FB0030022AE6738D
:104440006273A1734FEA500006F5FA6363D92B4DEE
:104450005A18A5FB03510232024402EB930202EB0D
:10446000D112274BA2EB5112A3FB0213D11A03EB7B
:1044700051039B08C3EBC303D31ADBB22373B5E626
:104480001E29CDD90622BBE7FDF730FF064606E020
:10449000FDF72CFF801BB0F57A7F3FF6DEAE236878
:1044A0005A689106F4D54FF6FF715A6842F010022F
:1044B0005A60196259625A6822F010025A60FDF778
:1044C00015FF064606E0FDF711FF801BB0F57A7F69
:1044D0003FF6C3AE23685B689A06F4D53DE71E2914
:1044E0009ED908228CE700BF7F5101000C8B000889
:1044F00007452EC280510100398EE3381F85EB51EC
:1045000025499224012302201A461946A373E67313
:10451000627306F5FA63704D06F2CF761944A5FB77
:1045200006350A1D024402EB960202EBD5126B4BD4
:10453000A2EB551298E71E297FF672AF09225FE7BA
:104540001E297FF66DAF0B225AE71E297FF668AF52
:10455000AB4206F10106D5D902300221012244E71F
:104560004FF0050A1D297FF65BAF28465246012110
:104570003BE74FF0070AF5E74FF00A0AF2E7F8B910
:10458000BAF1000F0BD1022A28467FF42EAF1B2967
:1045900050D89D4201F1010152D20135F3E7022AC0
:1045A00028467FF422AF1B2956D91C2978D01D2913
:1045B00076D09D4244D20135F1E74FF00C0AD1E7A5
:1045C000BAF1000F0DD1022A28467FF40EAF1B2945
:1045D00044D91C2977D01D2962D09D4230D20135A3
:1045E000F1E7022A28467FF400AF1B294BD8AB42E3
:1045F00001F1010124D90135F3E7BAF1000F0BD124
:10460000022A28467FF4F1AE1B2929D89D4201F1E8
:10461000010115D20135F3E7022A28467FF4E5AE01
:104620001B2924D91C293BD01D2939D09D4207D2F2
:104630000135F1E71C292FD01D2931D09D42ACD383
:10464000CBB20520022261E71C2929D01D2927D0E1
:104650009D42FFF4E3AEF3E70131AAE70131BCE785
:104660001C2934D01D291BD09D42D3D3E8E701314A
:10467000DCE71B290ED91C2912D01D2910D09D4220
:10468000DED20135ADE61C290AD01D2908D0AB4287
:10469000B1D8D5E70131F2E79D4207D21D217CE771
:1046A0009D4207D2681C022103229EE61D2305209D
:1046B00019462BE703220121E67306F5FA636273BC
:1046C000A1730720C3E69D42F0D21D2187E79D42DA
:1046D000ECD21D219EE700BF1F85EB512549922496
:1046E000704700BF002867D00368414A70B5934205
:1046F00004460ED0B3F1804F0BD0A2F59432934212
:1047000007D002F58062934203D0D921394801F0E5
:10471000C5FEA36833F0100209D023F04002202A1E
:1047200005D0402B03D0DA21324801F0B7FE2369CF
:1047300033F4807202D0B3F5007F50D1A36933F017
:10474000800303D0DC212B4801F0A8FE94F83D3013
:1047500003F0FF020BB302232268254E84F83D309C
:10476000B24213686068E168A56927D0B2F1804F52
:1047700019D0A6F59436B24215D006F58066B2423D
:1047800011D023F080032B431360D1629062012388
:104790000020536184F83D3070BD84F83C202046F1
:1047A000FFF79EFFD7E7A66823F07003334326691F
:1047B00023F440733343E4E701207047A66823F0F5
:1047C00070033343266923F44073334323F080039B
:1047D0002B431360D162906263691363D7E7DB21D7
:1047E000044801F05BFEA36933F08003AED0A9E773
:1047F000002C0140448B0008104A036810B5934216
:1048000011D0B3F1804F0ED0A2F5943293420AD06A
:1048100002F58062934206D0044640F261110848D6
:1048200001F03CFE2368DA68002042F00102DA6001
:104830001A6842F001021A6010BD00BF002C01404E
:10484000448B0008704700BF704700BF704700BF2F
:10485000704700BF036810B51A690446910702D576
:10486000DA6892075FD41A69500702D5DA685107EF
:1048700046D41A69120702D5DA6810072ED41A69CD
:10488000D20602D5DA68D00618D41A69D10702D543
:10489000DA68D2075DD41A69100602D5DA68110603
:1048A0005FD41A69520602D5DA68500661D41A69D3
:1048B000910602D5DA68920643D410BD6FF010015C
:1048C00008221961DB69204613F4407F227764D007
:1048D000FFF7BAFF002223682277D6E76FF00801BE
:1048E00004221961DB6920469907227752D1FFF72C
:1048F000A9FF2046FFF7AAFF002223682277BEE720
:104900006FF00401022219619B69204613F4407F75
:1049100022773CD1FFF796FF2046FFF797FF002252
:1049200023682277A5E76FF00201012219619B69D4
:1049300002779B0725D0FFF787FF002223682277A5
:1049400091E76FF020022046BDE810401A6100F0A8
:104950002BB86FF0010220461A6101F093FD236825
:1049600099E76FF0800220461A6100F01FF8236873
:1049700097E76FF0400220461A61FFF769FF23684E
:1049800095E7FFF75FFF2046FFF760FFD5E7FFF7EA
:104990005BFFC4E7FFF758FFAEE7FFF753FF204682
:1049A000FFF754FF96E700BF704700BF704700BF96
:1049B000002800F0F38082692DE9F843044603687B
:1049C000002A00F0D780A6498B4200F0FB80A1F5B9
:1049D00074418B4200F0F68001F580618B4200F05B
:1049E000F18040F20F119F4801F058FDA269002AA2
:1049F00040F0E880A36833F4805304D04FF48B7107
:104A0000984801F04BFD94F8393003F0FF02002B79
:104A100000F0CC802423226884F83930D3686068A1
:104A2000914923F400538842D36000F2B980E368CF
:104A300033F4005304D040F6A8118A4801F02EFD4B
:104A4000236933F4806203D0B3F5C06F40F0B480C3
:104A50004FF6F3736069184200D128B9814840F6D7
:104A6000AA1101F01BFD60692368E5681969A26855
:104A700021F4405129431961D968256921F4B051C5
:104A800021F00C012A430A430243DA605A69A06903
:104A9000734922F4407202438B425A6100F0A280B3
:104AA000FEF716FC636800EB800000EB80009B00C3
:104AB000B0FBF3F36D4F4FF06408A7FB03235B09D2
:104AC0001D01FEF705FC666800EB800000EB80002E
:104AD000B600B0FBF6F6FEF7FBFB626800EB800069
:104AE000930000EB8000B0FBF3F3A7FB03235B090B
:104AF00008FB13631B013233A7FB03235B0903F09D
:104B0000F006FEF7E5FB626800EB800000EB80003A
:104B10009300B0FBF3F9FEF7DBFB626800EB80006B
:104B2000930000EB8000B0FBF3F3A7FB03235B09CA
:104B300008FB13931B013233A7FB0323C3F3431377
:104B400033432B44202100252268284693601369B3
:104B500023F490431361536923F02A035361D3680C
:104B600043F40053D360E56384F8391084F83A10B5
:104B7000BDE8F8833A4A93423FF43CAFA2F5744251
:104B800093423FF437AF02F5806293423FF432AF75
:104B90004FF48A71334801F081FC2BE70120704704
:104BA00040F6A7112F4801F079FC40E784F838203F
:104BB000204601F0BDFC2DE740F6A911294801F07F
:104BC0006DFC45E722F40073B3F5807F3FF412AF2C
:104BD000B2F5007F3FF40EAF4FF48871214801F029
:104BE0005DFC07E7FEF784FB636800EB800000EBE9
:104BF00080009B00B0FBF3F31C4F4FF06408A7FB51
:104C000003235B091D01FEF773FB666800EB800060
:104C100000EB8000B600B0FBF6F6FEF769FB6268B9
:104C200000EB8000930000EB8000B0FBF3F3A7FBE8
:104C300003235B0908FB13631B013233A7FB032328
:104C40005B0903F0F006FEF753FB626800EB80009F
:104C5000930000EB8000B0FBF3F9FEF749FB5CE743
:104C6000003801407C8B000820AA44001F85EB51CE
:104C7000F8B590F83930202B2AD159B352B390F8B7
:104C80003830012B24D00446134600262122012768
:104C9000C384114D006BE66384F839200F4AA38466
:104CA000216284F838708562C2620D4D22684663C5
:104CB00005630432FDF746FC6FF04002236830467E
:104CC0001A605A6984F8386042F080025A61F8BD6F
:104CD0000220F8BD0120F8BDE94C0008194D00087C
:104CE000954D0008704700BF08B50368406A1B680F
:104CF00013F020030AD10268C384536923F08003B0
:104D00005361D36843F04003D36008BDFFF7EAFF67
:104D100008BD00BF704700BF08B5406AFFF7FAFF43
:104D200008BD00BF10B584680169B4F5805F836A6F
:104D3000026820D05C1C52688462C9B91A70C38DA5
:104D4000013B9BB2C3858BB920240268D16821F056
:104D50002001D160D16821F48071D160516921F0C6
:104D60000101516180F83A4000F07CF9002010BD4B
:104D700002F07F02E2E7526829B9C2F3080223F881
:104D8000022B8362DBE7D2B223F8012B8362D6E7E2
:104D9000704700BF08B5436A1A68506993F8391024
:104DA00021291CD0506993F83A10222907D0DA6BD8
:104DB000184642F01002DA63FFF7EAFF08BD410629
:104DC000F5D500212020D985D16821F49071D160DA
:104DD000516921F00101516183F83A00E7E70006CB
:104DE000E0D500212020D984D16821F0C001D16014
:104DF00083F83900D6E700BF036870B51A68044627
:104E00001607DD6859694AD011F0010150D0D60764
:104E100005D5E80503D5E06B40F00100E0635607D7
:104E200002F0020076D561B1E16B02F0080641F0B4
:104E30000201E163002872D11EB1E16B41F008016B
:104E4000E163E16B002932D0960601D5A80674D43F
:104E50005D69E16B090702D415F040057AD0202185
:104E6000DA6822F49072DA605A6922F001025A611B
:104E700084F83A105A6952065BD55A69616B22F080
:104E800040025A61002954D03B4B08464B63FDF762
:104E9000B3FB60B1606BBDE87040436B184796068A
:104EA00009D5A90607D590F83A30222B4ED070BD0F
:104EB00015F4907FABD116060ED45106F7D56A06CD
:104EC000F5D52021DA68204622F04002DA6084F825
:104ED0003910FFF707FF70BD2806EED594F839208A
:104EE000212AE4D1A168226AB1F5805F37D0511C34
:104EF000216212785A60E28C013A92B2E284002A6E
:104F0000D5D1DA6822F08002DA60DA6842F0400235
:104F1000DA6070BD40B1002993D002F00806E16B61
:104F200041F00401E16387E710078AD5002984D1A5
:104F300087E72046FFF72CFF70BD94F83A20222A1D
:104F400086D12046FFF7EEFE236881E7BDE870407A
:104F5000FFF7E8BE2046FFF71BFFE56370BD118831
:104F60002069C1F30801596010B902322262C2E718
:104F700001322262BFE700BF7D4F0008002208B562
:104F8000436ADA851846DA84FFF702FF08BD00BFDE
:104F900090F8392090F83A001043704710B5044655
:104FA00000F01AF8204610BD10B5044600F014F8C1
:104FB000204610BD10B5044600F00EF8204610BD86
:104FC00010B401704270436010BC704710B50446C5
:104FD00000F002F8204610BD10B50446FFF7F0FFC0
:104FE00000232046A360C4E90433E36010BD00BF82
:104FF00010B50446FFF7F0FF204610BD70B5164C03
:10500000237803B170BD01234FF400511A461348B1
:105010002370FDF77BFD01F0E1F80646082001F062
:1050200084FC3146054600F07BF81420656001F0F1
:105030007CFC61680546FCF791F9A56070BD2846C7
:10504000082102F08FF801F0D6FF2846142102F063
:1050500089F801F0D0FF00BFA0030020001001403C
:10506000FDF744B910B50446012208211448FDF7A4
:105070004DFD2368134A93420FD0134A934203D045
:10508000124A934212D010BD114B58680028FAD032
:10509000BDE8104003681B6818470D4B18680028CE
:1050A000F1D0BDE8104003681B681847084B9868AA
:1050B0000028E8D0BDE8104003681B68184700BF0F
:1050C0000008014000380140004400400048004012
:1050D000B8030020704700BF10B50446082102F055
:1050E00041F8204610BD00BFC0F30743C1F307429B
:1050F00082B09A42CDE9001002D0002002B0704781
:105100009DF801209DF805309A42F6D19DF80000E7
:105110009DF80430C01AB0FA80F0400902B0704720
:1051200070B50446122314260825094A82B041604E
:1051300022600846002201A98DF806608DF805500E
:105140008DF80730FEF7CEFE204602B070BD00BFDE
:10515000C08B000800B583B0002269464068FFF7A5
:1051600027F80020009BDAB262F30700C3F307229E
:1051700062F30F20C3F3074262F317401B0E63F381
:105180001F6003B05DF804FB00B583B000226946E0
:105190004068FEF7D9FB0020009BDAB262F30700FB
:1051A000C3F3072262F30F20C3F3074363F31740EF
:1051B00003B05DF804FB00BF0A4608B5014602488B
:1051C00002F0F6F9FEE700BFC88B00080FB430B557
:1051D000002383B00AE0BDF80230FE2B2CD801205A
:1051E00000F0DAF8BDF8023001339BB2ADF80230BE
:1051F00000F0F0FFFFF7CCFE00F0FD002028EAD120
:105200000025802200210F4802F024F90E4C07AB44
:105210001A4606990B480193258002F04BFA20802C
:1052200000F0D8FF22880749FFF722FD012003B0D4
:10523000BDE8304004B07047002003B0BDE8304006
:1052400004B0704788130020C40300202DE9F04FFC
:1052500087B0FFF7D3FE264B1C6814B12046FCF73D
:1052600031F9A279E1792348FFF7B0FF2248FFF72F
:10527000ADFF0025271D206917F8018B037B6EB257
:10528000AB4225D90369314603EB451393F804B0CB
:10529000FCF7E8FD314605902069FCF7F7FD314643
:1052A00081462069FCF7B6FD314682462069FCF74D
:1052B000C5FD059BCDE902A00093CDF804905B46A7
:1052C000424629460D48FFF781FF45B90125D2E73F
:1052D00036210B48FFF770FF00231B79FFDE2946BC
:1052E0000848FDF72DFC4FF47A7000F055F8B2E74E
:1052F000A8030020E48B0008088C0008408C0008FC
:10530000048700080008014030B585B0FFF776FE3D
:10531000074D084C4FF47A72002101A800F044F8C0
:105320002846FFF753FF02212046FDF709FCF1E76D
:10533000648C00080008014008B500F09DFA0020C8
:1053400008BD00BF70B545690B46D0E9001686B0B0
:105350000269B0F908406DB1806958B1842C0CBF66
:1053600000240334CDE901500094304600F03CF9AC
:1053700006B070BD842C0CBF0024033405AD92B27E
:1053800000943046019500F0CFF9012814BF0020A9
:10539000059806B070BD00BF08B5002808BF012001
:1053A00000F0ECFB002008BD002330B585B00446BA
:1053B0000293EFF3058048B18223019304AB13E914
:1053C000070084E80700204605B030BD13461546A7
:1053D00002AA00F07BFC012805D00DB90195EDE78C
:1053E00040230193EAE7029B002BB4BF86230823E6
:1053F0000193E3E74FF0FF31002200F108038160E1
:10540000C0E90023C0E90333704700BF00230361F4
:10541000704700BFD0E9002310B49C6801328C6053
:105420009C684B606160996010BC086102607047C5
:1054300030B40D686B1C11D000F1080200E01A4670
:1054400053681C68AC42FAD904684B600134996017
:105450008A6051600861046030BC7047026953681B
:10546000F2E700BF026910B4D0E9013154689960D5
:10547000816884424B6008BF51600021136801615C
:10548000581E106010BC70472DE9F041344C0546A1
:1054900000F0E0FC236801332360636893B3D4F821
:1054A0000031E86A43B304F108060123D4F8081177
:1054B000D4F80421834000EB80000B43013206EB5B
:1054C0008000291DC4F80831C4F80421FFF7A2FFA9
:1054D00000F0E2FCD4F8003163B16268EB6AD26A92
:1054E0009A4207D24FF080521E4B1A60BFF34F8F83
:1054F000BFF36F8FBDE8F0816368DB6A834298BFBA
:105500006560D0E765602368012B03D0E86A04F189
:105510000806CAE704F10806374604F1940838463D
:105520001437FFF767FFB845F9D10F4FA7F1140003
:10553000FFF760FF3846FFF75DFF07F11400FFF744
:1055400059FF07F12800FFF755FF07F13C00FFF76F
:1055500051FFC4F8F880E86AC4F8FC70A5E700BF02
:10556000C803002004ED00E070040020F8B51C4CD6
:105570000646D4F80C5160680F460430FFF772FFFE
:1055800048B901226168D4F80831C96A8A4023EA1F
:105590000203C4F80831731C18D06368AD195D604C
:1055A0000CD2D4F8F80061680431FFF741FFD4F859
:1055B0001031AB4288BFC4F81051F8BDD4F8FC00DC
:1055C0006168BDE8F8400431FFF732BF002FE4D036
:1055D000616804480431BDE8F840FFF71BBF00BF15
:1055E000C8030020AC0400202DE9F8430A9CDDE943
:1055F0000856002E00F08F8044B94FF0500383F31B
:105600001188BFF36F8FBFF34F8FFEE7022726632A
:1056100084F851700F7802F1804284F83470013AB6
:105620000F7806EB820626F00706002F4DD04A7849
:1056300084F835204A78002A47D08A7884F83620C2
:105640008A78002A41D0CA7884F83720CA78002A9C
:105650003BD00A7984F838200A79002A35D04A7973
:1056600084F839204A79002A2FD08A7984F83A20A0
:105670008A7952B3CA7984F83B20CA792AB30A7A64
:1056800084F83C200A7A02B34A7A84F83D204A7AA8
:10569000DAB18A7A84F83E208A7AB2B1CA7A84F87A
:1056A0003F20CA7A8AB10A7B84F840200A7B62B123
:1056B0004A7B84F841204A7B3AB18A7B84F84220B5
:1056C0008A7B12B1CA7B84F84320062D28BF0625A9
:1056D000002799468046E5626564201D84F8437082
:1056E000A764FFF793FEC5F1070504F11800FFF763
:1056F0008DFEE7644A464146A561246184F85070F6
:105700006462304600F082FB20602046FFF7BCFE5A
:105710002046BDE8F8834FF0500383F31188BFF3B0
:105720006F8FBFF34F8FFEE72DE9F0474FEA820AF4
:10573000804650460D469946099F00F081FC00289E
:1057400000F096800646542000F07AFC04460028BB
:1057500000F087800023066380F851302B78AAF18F
:10576000040A80F834302B78564426F00706002BC4
:105770004DD06B7880F835306B78002B47D0AB7804
:1057800080F83630AB78002B41D0EB7880F837309A
:10579000EB78002B3BD02B7980F838302B79002B1D
:1057A00035D06B7980F839306B79002B2FD0AB79FD
:1057B00080F83A30AB7953B3EB7980F83B30EB7932
:1057C0002BB32B7A80F83C302B7A03B36B7A80F8BA
:1057D0003D306B7ADBB1AB7A80F83E30AB7AB3B157
:1057E000EB7A80F83F30EB7A8BB12B7B80F840303E
:1057F0002B7B63B16B7B80F841306B7B3BB1AB7B28
:1058000080F84230AB7B13B1EB7B80F84330089DCE
:105810004FF0000A062D28BF0625201DE5626564AD
:1058200084F843A0C4F848A0FFF7F0FDC5F10705D0
:1058300004F11800FFF7EAFDC4F84CA0A56124614B
:1058400084F850A064624A464146304600F0DEFAD1
:10585000206007B13C602046FFF716FE0120BDE83E
:10586000F087304600F072FC4FF0FF30BDE8F08763
:105870004FF0FF30F3E700BF70B5002584B003AAF6
:1058800002A901A8CDE9015500F098FC029B002B6C
:105890004CD0019C44B94FF0500383F31188BFF3FF
:1058A0006F8FBFF34F8FFEE70221039E244A06F15C
:1058B0008046013E84F8511062632363201D03EB90
:1058C000860384F8385084F84350E562C4E91155E2
:1058D00023F00706FFF79AFD04F11800FFF796FD85
:1058E0000723E564A3612A461649304624616462B1
:1058F00084F8505000F08AFA20602046FFF7C4FD7B
:105900004FF0500383F31188BFF36F8FBFF34F8FB6
:105910004FF0FF3101220C4BC3F81011C3F80021E6
:10592000C3F80C5100F01AFB04B070BD4FF05003E7
:1059300083F31188BFF36F8FBFF34F8FFEE700BF74
:1059400049444C45C95B0008C8030020034AD2F80B
:1059500018310133C2F81831704700BFC803002066
:105960002DE9F047464CD4F81831002B4BD1D4F830
:105970000C610136C4F80C61002E52D0D4F81031FD
:105980000025B34234D84FF0010ADFF8F89026E042
:10599000D4F8F830DB68DF687B6807F104089E42C2
:1059A00062D34046FFF75EFDBB6A07F118000BB1FA
:1059B000FFF758FDF86AD4F808210AFA00F300EB63
:1059C00080001343414609EB8000C4F80831FFF71B
:1059D00021FD6368FA6ADB6A9A4228BF0125D4F880
:1059E000F8301B68002BD3D14FF0FF33C4F81031CF
:1059F0006368DB6A03EB830304EB83039B68022B7E
:105A000028BF012505E00025D4F824310133C4F86E
:105A10002431D4F81C31002B0CBF28460120BDE8EE
:105A2000F087D4F8F8301B6843B14FF0500383F38C
:105A30001188BFF36F8FBFF34F8FFEE7D4F8F830B4
:105A4000D4F8FC20C4F8F820C4F8FC30D4F8203195
:105A50000133C4F82031D4F8F8301B683BB94FF05B
:105A6000FF33C4F8103189E7C4F81031C0E7D4F827
:105A7000F830DB68DB685B68C4F810317EE700BF94
:105A8000C8030020D00300202DE9F041394CD4F8A0
:105A9000183143B94FF0500383F31188BFF36F8F70
:105AA000BFF34F8FFEE700F0D5F9D4F81831013B72
:105AB000C4F81831D4F8185155BB236843B30126F4
:105AC00004F10807D4F8BC3043B3D4F8C830DD681B
:105AD00005F1040805F11800FFF7C4FC4046FFF784
